:020000040000FA
:10000000C0230020150200001D0200001F02000096
:100010002102000023020000250200000000000071
:1000200000000000000000000000000027020000A7
:1000300029020000000000002B0200002D02000039
:100040002F0200001D0300009D0600002F0200008B
:100050002F0200002F0200002F0200002F020000DC
:100060002F0200002F0200002F0200002F020000CC
:100070002F0200002F0200002F0200002F020000BC
:100080002F0200002F0200002F0200002F020000AC
:10009000790300002F0200002F0200002F02000051
:1000A0002F0200002F0200002F0200002F0200008C
:1000B0002F0200002F0200000000000000000000DE
:1000C0002F0200002F0200002F0200002F0200006C
:1000D0002F0200002F0200002F020000000000008D
:1000E0000000000000000000000000000000000010
:1000F0000000000000000000000000000000000000
:1001000000000000000000000000000000000000EF
:1001100000000000000000000000000000000000DF
:1001200000000000000000000000000000000000CF
:1001300000000000000000000000000000000000BF
:1001400000000000000000000000000000000000AF
:10015000000000000000000000000000000000009F
:10016000000000000000000000000000000000008F
:10017000000000000000000000000000000000007F
:10018000000000000000000000000000000000006F
:10019000000000000000000000000000000000005F
:1001A000000000000000000000000000000000004F
:1001B000000000000000000000000000000000003F
:1001C000000000000000000000000000000000002F
:1001D000000000000000000000000000000000001F
:1001E000000000000000000000000000000000000F
:1001F00000000000000000000000000000000000FF
:10020000DFF80CD000F03CF8004800476D08000013
:10021000C02300200648804706480047FEE7FEE767
:10022000FEE7FEE7FEE7FEE7FEE7FEE7FEE7FEE7A6
:10023000D10300000102000040EA01039B0703D044
:1002400009E008C9121F08C0042AFAD203E011F815
:10025000013B00F8013B521EF9D27047D2B201E0D7
:1002600000F8012B491EFBD270470022F6E710B5BB
:1002700013460A4604461946FFF7F0FF204610BD14
:10028000064C074D06E0E06840F0010394E80700E3
:1002900098471034AC42F6D3FFF7B6FFE4120000E3
:1002A0000413000000F01F0201219140400980006A
:1002B00000F1E020C0F88012704700F01F02012119
:1002C00091404009800000F1E020C0F880117047A3
:1002D00000F01F02012191404009800000F1E02060
:1002E000C0F80011704700F01F0201219140400941
:1002F000800000F1E020C0F8001270474907090EA5
:10030000002806DA00F00F0000F1E02080F8141D4C
:10031000704700F1E02080F80014704770B5144C6D
:10032000D4F80001002628B1D4F80403C00701D096
:10033000C4F80061D4F80C010E4D40B1D4F80403A8
:10034000000704D5C4F80C61E86800B18047D4F810
:10035000100100280BD0D4F80403C00607D5C4F858
:100360001061A868002802D0BDE87040004770BD49
:1003700000100040000000207CB5144C206A019061
:100380002078002821D00120FFF797FF656800261C
:1003900066600120FFF79CFFA169002915D0E807DE
:1003A00003D08DF8006068468847A80705D501206E
:1003B0008DF80000A16968468847680705D50220C6
:1003C0008DF80000A169684688477CBD00000020C8
:1003D000F0B5A3480023021D01780125101D4FF040
:1003E000805406290BD11678360708D10678C6F353
:1003F0000316032E06D0042E04D0052E02D00629A3
:1004000007D00EE0B4F82463964FC6F304263E608E
:1004100002E01678360704D10678C6F30316032ED9
:1004200002D0062904D00FE0904F8F4E7E670EE079
:100430001678360708D10678C6F30316032E06D0C1
:10044000042E04D0052E02D0062907D00EE0D4F8E1
:100450004462874FC6F342363E6002E016783607A4
:1004600004D10678C6F30316032E02D0062906D05F
:1004700011E0804E376827F0807737600EE01678FD
:10048000360708D10678C6F30316032E06D0042ECD
:1004900004D0052E02D006290AD011E04FF0804684
:1004A000C6F80C31C6F81031714E361F336002E0C9
:1004B0001678360704D10678C6F30316032E02D049
:1004C000062905D00CE06A4F032664373E600AE037
:1004D0001678360704D10678C6F30316032E02D029
:1004E00006290DD014E0644F05263E60624E783632
:1004F0003560614E083633603F263F1D3E6002E0A6
:100500001678360704D10678C6F30316052E02D0F6
:10051000062957D068E059490968594A1160574976
:10052000091D0968121D1160544908310968121D1E
:10053000116052490C310968121D11604F49103188
:100540000968121D11604D4914310968121D1160AE
:100550004A49183109684A4A2032116047491C311A
:100560000968121D1160454920310968121D11608A
:10057000424924310968121D116040492831096837
:10058000121D11603D492C310968121D11603B4953
:10059000303109683A4A40321160384934310968CB
:1005A000121D1160354938310968121D1160334937
:1005B0003C310968121D1160304940310968121D33
:1005C000116002E0117809070ED10078C0F3031022
:1005D000032803D0042801D0052805D1D4F85802F7
:1005E000284900F04F00086022487438016841F43F
:1005F00070010160BFF34F8FBFF36F8F4FF0102179
:10060000D1F80002002803DBD1F80402002822DA26
:100610001D4A15601D480468002CFCD01524C1F843
:1006200000420568002DFCD0C1F804420168002991
:10063000FCD0136001680029FCD0BFF34F8F0D4838
:10064000F0380168124A01F4E06111430160BFF320
:100650004F8F00BFFDE710490E480860F0BD000055
:10066000E00F00F0403501400DF0ADBA00C007408A
:100670003C050040FCED00E0105600400404001072
:1006800020C50040E40E004004E5014000E40140C4
:100690000400FA050090D0033C0000200448017FCC
:1006A00004480029024901D000F0EFBC00F05EBC14
:1006B000680000200020004002E008C8121F08C1A6
:1006C000002AFAD170477047002001E001C1121FD3
:1006D000002AFBD17047006890FAA0F000BA00BA77
:1006E00070470000BFF34F8F05480168054A01F4C9
:1006F000E06111430160BFF34F8F00BFFDE70000D1
:100700000CED00E00400FA050EB500210091CDE9E2
:1007100001106A4644F20100FFF7E4FF0EBD00003D
:100720000249085C012100F08ABA0000DC120000D6
:100730007CB50024084E25460122305D009500233B
:100740001146019500F05EFA641C042CF4D3BDE858
:100750007C4000F003B80000DC12000010B500245B
:100760002046FFF7DDFF641C042CF9D310BD0068A0
:1007700090FAA0F000BA704710B50F4C40F2131079
:10078000C4F800020E490D480969C07C88470E492B
:100790000C4808600021C4F810110120C4F81000B2
:1007A000D4F81021002AFBD0C4F8101140F2171120
:1007B000C4F80012606010BD0010004088000020E6
:1007C000000000206A030020041500404FF0804024
:1007D0000021C0F800110121C0F80010D0F800116C
:1007E0000029FBD07047000000B51AA08BB000684C
:1007F000089019A019A100680990D1E90001CDE97C
:100800000601182217496846FFF716FD08208DF8E3
:10081000130001208DF800008DF808008DF801000C
:100820001148019000208DF81400684600F098F8F7
:1008300000280DD108A800F05FF9002808D109A808
:1008400000F06CF9002803D1082106A800F078F91F
:100850000BB000BDE7E7E7E7C2C2C2C2E7C2C3C44C
:10086000C5C6C7C8C4120000D5080000FFF760FF66
:10087000FFF7ACFFFFF7B8FF08B1FFF745FF00F047
:1008800083F908B1FFF740FF20BFFDE70D4910B520
:100890004FF4705008600C490020487000F0D0FA06
:1008A00024210A48FFF7E1FC084809210A38FFF72C
:1008B000DCFC1420FFF701FD05490320C1F800020C
:1008C000002010BD08F50140000000209603002024
:1008D0000010004010B5007800283DD001283BD022
:1008E000022839D11D4800F0CBF8002834D11B4C28
:1008F000A079410703D000F00700042801D90121A5
:1009000000E00021112000F08FF9A07900F007002D
:10091000012801D9052801D9012100E00021122078
:1009200000F082F9A07900F00700022801D906281A
:1009300001D9012100E00021132000F075F9A07910
:1009400000F00700032801D8012100E00021BDE8E4
:100950001040142000F068B910BD000040000020D5
:1009600070B5050076D03C4C207818B1FFF78EFFAB
:1009700000286DD16868A061182229463748FFF722
:100980005BFC0025656024213548FFF76EFC344888
:1009900009210A38FFF769FC00F018FC00F050FA52
:1009A0002E490020183101F5947200BF00EB80033E
:1009B00003EB40130B4442F82030401C0828F5DBC1
:1009C0002849002001F5947200EB800303EB4013EB
:1009D0000B4442F82030401C0828F5DB2249042053
:1009E0000860214808380560204840F20221C0F81C
:1009F0000012204A1E491160111D08601C48001D8C
:100A0000091D08601948001D091D0860091D1A48C4
:100A100008601748F038091D08601748001D091DB7
:100A20000860091D154808600C4E707C00F0030139
:100A30000120FFF763FCB07C00F003011420FFF7F6
:100A40005DFC1420FFF744FC65700120207000203D
:100A500070BDFFE70E20FBE70000002088000020AB
:100A600096030020F401002010A5004000A00040E3
:100A70000011004060F5014040A10040001000401E
:100A800070B505461A48007860B36DB3194CA06A7A
:100A900060B30120FFF711FC606A54F820100A7857
:100AA0002A7054F820104978697054F82010897819
:100AB000A97054F820100979297154F82010681D84
:100AC000491DFFF7B9FB606A401C6062082801D32A
:100AD00000206062A06A401EA0620120FFF7F8FBC0
:100AE000002070BD082070BD0E2070BD052070BDB7
:100AF000000000201C030020074910B54A780AB105
:100B0000112010BD30B100688862012000F036FB72
:100B1000002010BD0E2010BD00000020074910B5B8
:100B20004A780AB1112010BD30B10068C8620220B5
:100B300000F024FB002010BD0E2010BD000000209E
:100B400010B50C460F49497809B1112010BD18B1F4
:100B5000092C03D3072010BD0E2010BD0146094803
:100B600022463030FFF768FB0648C4F108022830FF
:100B7000FF210474D1408174042000F0FFFA0020AA
:100B800010BD00000000002070B51948417809B17F
:100B9000112070BD174C4FF0FF31C4F80813002529
:100BA000C4F810511449816040F21711C4F80012C2
:100BB0001021C4F80413042141700D480F4A283055
:100BC000817C11600D49C07C28390860091F0C48E0
:100BD000086001209434FFF765FB0120FFF778FBE4
:100BE00025676567E567012044F8900C002070BD1B
:100BF00000000020001000408D0C00003015004067
:100C00006A03002070B541EA4201DDE904564FF065
:100C1000A04441EA830141EA052104EB800041EA56
:100C20000641C0F8001770BD01224FF0A04382407A
:100C300011B1C3F808257047C3F80C25704701228D
:100C40004FF0A043824011B1C3F808257047C3F8A4
:100C50000C2570474058002800D00120704708B587
:100C6000002242504058009008BDD0F804030840CC
:100C700000D0012070474058002800D00120704764
:100C800008B5002242504058009008BD2DE9F05FA1
:100C9000544800220127006818B15348806A082888
:100CA00003D3BDE8F05FFFF767BDDFF8389109F1C6
:100CB0000809D9F800004C4909F104037A311C688D
:100CC00001EB80062C3935884878AC4205D1B478E0
:100CD000B4EB500F01D1012200274008B070186812
:100CE0008B4630804148424C017D31B19BF8011068
:100CF000C90702D0FFF740FD5EE03E4B40F21B11FA
:100D0000C3F800123A49384D007809694FF0000ADB
:100D10002C35A0B3012844D1A5F5C070836AB3F186
:100D2000000E2DD0436A50F823C09CF80180D9F8FA
:100D300000C0E04524D196F803C0BCF1010F0DD1ED
:100D400062B95B1C4362082B01D3C0F824A0AEF14A
:100D500001028262626842F0010262600122F27066
:100D6000426A50F82200606100788847616908781B
:100D7000287011F8052BA81CFFF75EFA06E009E0C1
:100D800086F803A00020884785F800A09BF80100A2
:100D9000687006E0002088479BF80000287085F8FE
:100DA00001A005206070D9F80000134908601248BE
:100DB000283805601148A060002F10D0B178D9F80C
:100DC0000000C0B200F070F8002808D0606840F061
:100DD00004006060BDE8F05F1420FFF784BABDE84E
:100DE000F09F0000001400401C0300208800002039
:100DF00000000020001000402C150040010E0000F3
:100E0000094910B540F21710C1F80002084C074814
:100E10002169C07C88470849064808600748A060E7
:100E20000420607010BD0000001000408800002009
:100E3000000000206A030020041500408D0C000013
:100E40000549002008624862886201F5AA710862BB
:100E50004862886270470000C801002070B50546EE
:100E6000C87D0C4600284FF4847128460AD0FFF74D
:100E7000F6FED5F81805627EE1688854607E401C55
:100E8000607670BDFFF7EBFED5F8180570BD1FB595
:100E900001238DF800308DF808100192D0E900127E
:100EA000684690471FBD00002DE9F0411E4C0746E3
:100EB0000E46A06A082835D2A4F52572204613787C
:100EC0000025006A02F2E221012B03D0537843B1DE
:100ED000D27C02E00A78202A24D854F820301A70F4
:100EE00002E054F82020157054F82000891C10F8F6
:100EF000052BFFF7A1F9206A54F820104F700B4919
:100F0000096854F82020917054F82010401C0828DB
:100F10000E71206200D32562A06A401CA0620120ED
:100F2000BDE8F0810020FBE71C03002048150040CD
:100F300070B50C4605464FF48E71FFF790FEA18AFE
:100F4000A068415CA08A401CA082C5F81C1570BD39
:100F50001FB500228DF800208DF8081081680191DE
:100F60008275D0E90012684690471FBD2DE9FF4702
:100F70000C4605464FF40071FFF777FE01274FF44A
:100F80000178002618B34FF4927949462846FFF7B6
:100F900061FEE0B149462846FFF761FEC5F80883C7
:100FA000A07E00B96F6002208DF80000D5F88004A3
:100FB000C5F880040390E07D8DF80800E06801909A
:100FC000E6752676D4E900126846904727E00421AA
:100FD0002846FFF74AFE10B34FF484712846FFF706
:100FE00039FEE0B121462846FFF738FFE07D617EFB
:100FF000884214D1207E38B1617EE268E0752069B4
:10100000E0602676667607E0A07E00B96F60C5F8DE
:101010000883E675617EE2682046FFF738FF4FF4EB
:101020008E7841462846FFF715FE88B1A08AA17D3B
:10103000884204D221462846FFF77AFF08E041465D
:101040002846FFF70CFEA17D11B12046FFF780FF77
:101050004FF4A27841462846FFF7FCFD002812D045
:1010600041462846FFF7FBFDA07E00B12F60E07DE2
:10107000002808D0E675617EE26804B02046BDE82D
:10108000F047FFF704BFBDE8FF872DE9FF410C469D
:101090004FF4927705463946FFF7EDFD0026C0B1C3
:1010A00039462846FFF7ECFD02208DF80000D5F800
:1010B0008004C5F880040390D5F83C058DF808003D
:1010C000E0680190E6752676D4E9001268469047FC
:1010D00024E04FF4887739462846FFF7CCFDE8B185
:1010E00039462846FFF7CCFDD5F83C05C1B2E07D76
:1010F000884213D1207E60B1E268D5F8000220F06A
:101100002000C5F80002207EE0752069E0602676A8
:1011100001E0E675E2682046FFF7B9FE4FF4A277DA
:1011200039462846FFF7A7FD68B139462846FFF73C
:10113000A7FDE07D38B1E675D5F83C05E268C1B29F
:101140002046FFF7A4FE4FF4907631462846FFF77D
:1011500092FD00280FD031462846FFF791FDA07D73
:10116000002808D0D5F84C0504B0C1B22046BDE82F
:10117000F041FFF7EDBEBDE8FF81000010B5044669
:10118000C00704D00F48FFF7A6FA0F490860A00770
:1011900006D50C48001DFFF79EFA0B49091D086093
:1011A00060070DD507480830FFF7E1FA0649083116
:1011B000086004480C30FFF7DAFA03490C31086084
:1011C00010BD0000280000201C15004010B500F0E4
:1011D00043F81B481B49027A0A601B4940235AB155
:1011E000012A04D0022A04D0032A06D104E03022C6
:1011F00000E0FA224A6200E04B6202781AB1012A4A
:1012000003D1124A00E0124A0A610E4B427A24339B
:101210001A600C4B2C331C1F022A02D0012A05D065
:1012200009E04FF6FF721A600A4A03E0FF221A60D3
:1012300040F207122260C07C0969BDE810400847EF
:1012400088000020101500400000002099120000C6
:101250006D1200002110010002480349807A0860E5
:1012600070470000880000200C150040084A07491C
:1012700011600849497C491E090441EA00210143E3
:1012800041F08070111D08607047000000010100EE
:101290001415004028000020074906480860074848
:1012A0000749407C401E41EA00400349091D08608F
:1012B00070470000060003001415004028000020BD
:1012C00020000001010000000000000001020000F9
:1012D000FA000300000102200000000011121314A4
:1012E0000D0E0F100413000000000020400000004D
:1012F000B8060000441300004000002080230000D6
:10130000C80600000000000000000000000000000F
:1013100000000000000000000000000000000000CD
:10132000000000000000000000000000E7E7E7E721
:10133000C2C2C2C2E7C2C3C4C5C6C7C80805FF024D
:041340000090D00346
:0400000500000201F4
:00000001FF
